{
  "contractName": "CryptosToken",
  "abi": [
    {
      "constant": true,
      "inputs": [],
      "name": "supply",
      "outputs": [
        {
          "name": "",
          "type": "uint256"
        }
      ],
      "payable": false,
      "stateMutability": "view",
      "type": "function"
    },
    {
      "constant": true,
      "inputs": [],
      "name": "name",
      "outputs": [
        {
          "name": "",
          "type": "string"
        }
      ],
      "payable": false,
      "stateMutability": "view",
      "type": "function"
    },
    {
      "constant": true,
      "inputs": [
        {
          "name": "",
          "type": "address"
        }
      ],
      "name": "balances",
      "outputs": [
        {
          "name": "",
          "type": "uint256"
        }
      ],
      "payable": false,
      "stateMutability": "view",
      "type": "function"
    },
    {
      "constant": true,
      "inputs": [],
      "name": "decimals",
      "outputs": [
        {
          "name": "",
          "type": "uint256"
        }
      ],
      "payable": false,
      "stateMutability": "view",
      "type": "function"
    },
    {
      "constant": true,
      "inputs": [],
      "name": "founder",
      "outputs": [
        {
          "name": "",
          "type": "address"
        }
      ],
      "payable": false,
      "stateMutability": "view",
      "type": "function"
    },
    {
      "constant": true,
      "inputs": [],
      "name": "symbol",
      "outputs": [
        {
          "name": "",
          "type": "string"
        }
      ],
      "payable": false,
      "stateMutability": "view",
      "type": "function"
    },
    {
      "inputs": [],
      "payable": false,
      "stateMutability": "nonpayable",
      "type": "constructor"
    },
    {
      "anonymous": false,
      "inputs": [
        {
          "indexed": true,
          "name": "from",
          "type": "address"
        },
        {
          "indexed": true,
          "name": "to",
          "type": "address"
        },
        {
          "indexed": false,
          "name": "tokens",
          "type": "uint256"
        }
      ],
      "name": "Transfer",
      "type": "event"
    },
    {
      "anonymous": false,
      "inputs": [
        {
          "indexed": true,
          "name": "tokenOwner",
          "type": "address"
        },
        {
          "indexed": true,
          "name": "spender",
          "type": "address"
        },
        {
          "indexed": false,
          "name": "tokens",
          "type": "uint256"
        }
      ],
      "name": "Approval",
      "type": "event"
    },
    {
      "constant": true,
      "inputs": [
        {
          "name": "tokenOwner",
          "type": "address"
        },
        {
          "name": "spender",
          "type": "address"
        }
      ],
      "name": "allowance",
      "outputs": [
        {
          "name": "",
          "type": "uint256"
        }
      ],
      "payable": false,
      "stateMutability": "view",
      "type": "function"
    },
    {
      "constant": false,
      "inputs": [
        {
          "name": "spender",
          "type": "address"
        },
        {
          "name": "tokens",
          "type": "uint256"
        }
      ],
      "name": "approve",
      "outputs": [
        {
          "name": "",
          "type": "bool"
        }
      ],
      "payable": false,
      "stateMutability": "nonpayable",
      "type": "function"
    },
    {
      "constant": false,
      "inputs": [
        {
          "name": "from",
          "type": "address"
        },
        {
          "name": "to",
          "type": "address"
        },
        {
          "name": "tokens",
          "type": "uint256"
        }
      ],
      "name": "transferFrom",
      "outputs": [
        {
          "name": "",
          "type": "bool"
        }
      ],
      "payable": false,
      "stateMutability": "nonpayable",
      "type": "function"
    },
    {
      "constant": true,
      "inputs": [],
      "name": "totalSupply",
      "outputs": [
        {
          "name": "",
          "type": "uint256"
        }
      ],
      "payable": false,
      "stateMutability": "view",
      "type": "function"
    },
    {
      "constant": true,
      "inputs": [
        {
          "name": "tokenOwner",
          "type": "address"
        }
      ],
      "name": "balanceOf",
      "outputs": [
        {
          "name": "balance",
          "type": "uint256"
        }
      ],
      "payable": false,
      "stateMutability": "view",
      "type": "function"
    },
    {
      "constant": false,
      "inputs": [
        {
          "name": "to",
          "type": "address"
        },
        {
          "name": "tokens",
          "type": "uint256"
        }
      ],
      "name": "transfer",
      "outputs": [
        {
          "name": "success",
          "type": "bool"
        }
      ],
      "payable": false,
      "stateMutability": "nonpayable",
      "type": "function"
    }
  ],
  "bytecode": "0x60806040526040805190810160405280600b81526020017f416b6b696520546f6b656e0000000000000000000000000000000000000000008152506000908051906020019061004f929190610166565b506040805190810160405280600381526020017f414b5400000000000000000000000000000000000000000000000000000000008152506001908051906020019061009b929190610166565b5060006002553480156100ad57600080fd5b50620493e060038190555033600460006101000a81548173ffffffffffffffffffffffffffffffffffffffff021916908373ffffffffffffffffffffffffffffffffffffffff16021790555060035460056000600460009054906101000a900473ffffffffffffffffffffffffffffffffffffffff1673ffffffffffffffffffffffffffffffffffffffff1673ffffffffffffffffffffffffffffffffffffffff1681526020019081526020016000208190555061020b565b828054600181600116156101000203166002900490600052602060002090601f016020900481019282601f106101a757805160ff19168380011785556101d5565b828001600101855582156101d5579182015b828111156101d45782518255916020019190600101906101b9565b5b5090506101e291906101e6565b5090565b61020891905b808211156102045760008160009055506001016101ec565b5090565b90565b610c758061021a6000396000f3006080604052600436106100ba576000357c0100000000000000000000000000000000000000000000000000000000900463ffffffff168063047fc9aa146100bf57806306fdde03146100ea578063095ea7b31461017a57806318160ddd146101df57806323b872dd1461020a57806327e235e31461028f578063313ce567146102e65780634d853ee51461031157806370a082311461036857806395d89b41146103bf578063a9059cbb1461044f578063dd62ed3e146104b4575b600080fd5b3480156100cb57600080fd5b506100d461052b565b6040518082815260200191505060405180910390f35b3480156100f657600080fd5b506100ff610531565b6040518080602001828103825283818151815260200191508051906020019080838360005b8381101561013f578082015181840152602081019050610124565b50505050905090810190601f16801561016c5780820380516001836020036101000a031916815260200191505b509250505060405180910390f35b34801561018657600080fd5b506101c5600480360381019080803573ffffffffffffffffffffffffffffffffffffffff169060200190929190803590602001909291905050506105cf565b604051808215151515815260200191505060405180910390f35b3480156101eb57600080fd5b506101f461071e565b6040518082815260200191505060405180910390f35b34801561021657600080fd5b50610275600480360381019080803573ffffffffffffffffffffffffffffffffffffffff169060200190929190803573ffffffffffffffffffffffffffffffffffffffff16906020019092919080359060200190929190505050610728565b604051808215151515815260200191505060405180910390f35b34801561029b57600080fd5b506102d0600480360381019080803573ffffffffffffffffffffffffffffffffffffffff169060200190929190505050610932565b6040518082815260200191505060405180910390f35b3480156102f257600080fd5b506102fb61094a565b6040518082815260200191505060405180910390f35b34801561031d57600080fd5b50610326610950565b604051808273ffffffffffffffffffffffffffffffffffffffff1673ffffffffffffffffffffffffffffffffffffffff16815260200191505060405180910390f35b34801561037457600080fd5b506103a9600480360381019080803573ffffffffffffffffffffffffffffffffffffffff169060200190929190505050610976565b6040518082815260200191505060405180910390f35b3480156103cb57600080fd5b506103d46109bf565b6040518080602001828103825283818151815260200191508051906020019080838360005b838110156104145780820151818401526020810190506103f9565b50505050905090810190601f1680156104415780820380516001836020036101000a031916815260200191505b509250505060405180910390f35b34801561045b57600080fd5b5061049a600480360381019080803573ffffffffffffffffffffffffffffffffffffffff16906020019092919080359060200190929190505050610a5d565b604051808215151515815260200191505060405180910390f35b3480156104c057600080fd5b50610515600480360381019080803573ffffffffffffffffffffffffffffffffffffffff169060200190929190803573ffffffffffffffffffffffffffffffffffffffff169060200190929190505050610bc2565b6040518082815260200191505060405180910390f35b60035481565b60008054600181600116156101000203166002900480601f0160208091040260200160405190810160405280929190818152602001828054600181600116156101000203166002900480156105c75780601f1061059c576101008083540402835291602001916105c7565b820191906000526020600020905b8154815290600101906020018083116105aa57829003601f168201915b505050505081565b600081600560003373ffffffffffffffffffffffffffffffffffffffff1673ffffffffffffffffffffffffffffffffffffffff168152602001908152602001600020541015151561061f57600080fd5b60008211151561062e57600080fd5b81600660003373ffffffffffffffffffffffffffffffffffffffff1673ffffffffffffffffffffffffffffffffffffffff16815260200190815260200160002060008573ffffffffffffffffffffffffffffffffffffffff1673ffffffffffffffffffffffffffffffffffffffff168152602001908152602001600020819055508273ffffffffffffffffffffffffffffffffffffffff163373ffffffffffffffffffffffffffffffffffffffff167f8c5be1e5ebec7d5bd14f71427d1e84f3dd0314c0f7b2291e5b200ac8c7c3b925846040518082815260200191505060405180910390a36001905092915050565b6000600354905090565b600081600660008673ffffffffffffffffffffffffffffffffffffffff1673ffffffffffffffffffffffffffffffffffffffff16815260200190815260200160002060008573ffffffffffffffffffffffffffffffffffffffff1673ffffffffffffffffffffffffffffffffffffffff16815260200190815260200160002054101515156107b557600080fd5b81600560008673ffffffffffffffffffffffffffffffffffffffff1673ffffffffffffffffffffffffffffffffffffffff168152602001908152602001600020541015151561080357600080fd5b81600560008673ffffffffffffffffffffffffffffffffffffffff1673ffffffffffffffffffffffffffffffffffffffff1681526020019081526020016000206000828254039250508190555081600560008573ffffffffffffffffffffffffffffffffffffffff1673ffffffffffffffffffffffffffffffffffffffff1681526020019081526020016000206000828254019250508190555081600660008673ffffffffffffffffffffffffffffffffffffffff1673ffffffffffffffffffffffffffffffffffffffff16815260200190815260200160002060008573ffffffffffffffffffffffffffffffffffffffff1673ffffffffffffffffffffffffffffffffffffffff16815260200190815260200160002060008282540392505081905550600190509392505050565b60056020528060005260406000206000915090505481565b60025481565b600460009054906101000a900473ffffffffffffffffffffffffffffffffffffffff1681565b6000600560008373ffffffffffffffffffffffffffffffffffffffff1673ffffffffffffffffffffffffffffffffffffffff168152602001908152602001600020549050919050565b60018054600181600116156101000203166002900480601f016020809104026020016040519081016040528092919081815260200182805460018160011615610100020316600290048015610a555780601f10610a2a57610100808354040283529160200191610a55565b820191906000526020600020905b815481529060010190602001808311610a3857829003601f168201915b505050505081565b600081600560003373ffffffffffffffffffffffffffffffffffffffff1673ffffffffffffffffffffffffffffffffffffffff1681526020019081526020016000205410158015610aae5750600082115b1515610ab957600080fd5b81600560008573ffffffffffffffffffffffffffffffffffffffff1673ffffffffffffffffffffffffffffffffffffffff1681526020019081526020016000206000828254019250508190555081600560003373ffffffffffffffffffffffffffffffffffffffff1673ffffffffffffffffffffffffffffffffffffffff168152602001908152602001600020600082825403925050819055508273ffffffffffffffffffffffffffffffffffffffff163373ffffffffffffffffffffffffffffffffffffffff167fddf252ad1be2c89b69c2b068fc378daa952ba7f163c4a11628f55a4df523b3ef846040518082815260200191505060405180910390a36001905092915050565b6000600660008473ffffffffffffffffffffffffffffffffffffffff1673ffffffffffffffffffffffffffffffffffffffff16815260200190815260200160002060008373ffffffffffffffffffffffffffffffffffffffff1673ffffffffffffffffffffffffffffffffffffffff168152602001908152602001600020549050929150505600a165627a7a723058201419c7e6794eed5166b200b5369dc1ff13fd5ee8ec283d09e2e23375e893cdfe0029",
  "source": "pragma solidity ^0.4.24;\n\nimport \"./ERC20Interface.sol\";\n\ncontract CryptosToken is ERC20Interface{\n    string public name = \"Akkie Token\";\n    string public symbol = \"AKT\";\n    uint public decimals = 0;\n    \n    uint public supply;\n    address public founder;\n    \n    mapping(address => uint) public balances;\n    \n    mapping(address => mapping(address => uint)) allowed;\n    \n    //allowed[0x1111....][0x22222...] = 100;\n    \n    \n    event Transfer(address indexed from, address indexed to, uint tokens);\n    event Approval(address indexed tokenOwner, address indexed spender, uint tokens);\n\n\n    constructor() public{\n        supply = 300000;\n        founder = msg.sender;\n        balances[founder] = supply;\n    }\n    \n    \n    function allowance(address tokenOwner, address spender) view public returns(uint){\n        return allowed[tokenOwner][spender];\n    }\n    \n    \n    //approve allowance\n    function approve(address spender, uint tokens) public returns(bool){\n        require(balances[msg.sender] >= tokens);\n        require(tokens > 0);\n        \n        allowed[msg.sender][spender] = tokens;\n        emit Approval(msg.sender, spender, tokens);\n        return true;\n    }\n    \n    //transfer tokens from the  owner account to the account that calls the function\n    function transferFrom(address from, address to, uint tokens) public returns(bool){\n        require(allowed[from][to] >= tokens);\n        require(balances[from] >= tokens);\n        \n        balances[from] -= tokens;\n        balances[to] += tokens;\n        \n        \n        allowed[from][to] -= tokens;\n        \n        return true;\n    }\n    \n    function totalSupply() public view returns (uint){\n        return supply;\n    }\n    \n    function balanceOf(address tokenOwner) public view returns (uint balance){\n        return balances[tokenOwner];\n    }\n    \n    \nfunction transfer(address to, uint tokens) public returns (bool success){\n        require(balances[msg.sender] >= tokens && tokens > 0);\n        \n        balances[to] += tokens;\n        balances[msg.sender] -= tokens;\n        emit Transfer(msg.sender, to, tokens);\n        return true;\n    }\n}",
  "sourcePath": "/Users/akitasatoshi/ico_practice/contracts/CryptosToken.sol",
  "compiler": {
    "name": "solc",
    "version": "0.4.25+commit.59dbf8f1.Emscripten.clang"
  },
  "schemaVersion": "2.0.2",
  "updatedAt": "2019-04-13T04:47:12.675Z"
}