{
  "contractName": "CryptosICO",
  "abi": [
    {
      "constant": true,
      "inputs": [],
      "name": "maxInvestment",
      "outputs": [
        {
          "name": "",
          "type": "uint256"
        }
      ],
      "payable": false,
      "stateMutability": "view",
      "type": "function"
    },
    {
      "constant": true,
      "inputs": [],
      "name": "supply",
      "outputs": [
        {
          "name": "",
          "type": "uint256"
        }
      ],
      "payable": false,
      "stateMutability": "view",
      "type": "function"
    },
    {
      "constant": true,
      "inputs": [],
      "name": "name",
      "outputs": [
        {
          "name": "",
          "type": "string"
        }
      ],
      "payable": false,
      "stateMutability": "view",
      "type": "function"
    },
    {
      "constant": false,
      "inputs": [
        {
          "name": "spender",
          "type": "address"
        },
        {
          "name": "tokens",
          "type": "uint256"
        }
      ],
      "name": "approve",
      "outputs": [
        {
          "name": "",
          "type": "bool"
        }
      ],
      "payable": false,
      "stateMutability": "nonpayable",
      "type": "function"
    },
    {
      "constant": true,
      "inputs": [],
      "name": "totalSupply",
      "outputs": [
        {
          "name": "",
          "type": "uint256"
        }
      ],
      "payable": false,
      "stateMutability": "view",
      "type": "function"
    },
    {
      "constant": true,
      "inputs": [
        {
          "name": "",
          "type": "address"
        }
      ],
      "name": "balances",
      "outputs": [
        {
          "name": "",
          "type": "uint256"
        }
      ],
      "payable": false,
      "stateMutability": "view",
      "type": "function"
    },
    {
      "constant": true,
      "inputs": [],
      "name": "decimals",
      "outputs": [
        {
          "name": "",
          "type": "uint256"
        }
      ],
      "payable": false,
      "stateMutability": "view",
      "type": "function"
    },
    {
      "constant": true,
      "inputs": [],
      "name": "icoState",
      "outputs": [
        {
          "name": "",
          "type": "uint8"
        }
      ],
      "payable": false,
      "stateMutability": "view",
      "type": "function"
    },
    {
      "constant": true,
      "inputs": [],
      "name": "founder",
      "outputs": [
        {
          "name": "",
          "type": "address"
        }
      ],
      "payable": false,
      "stateMutability": "view",
      "type": "function"
    },
    {
      "constant": true,
      "inputs": [
        {
          "name": "tokenOwner",
          "type": "address"
        }
      ],
      "name": "balanceOf",
      "outputs": [
        {
          "name": "balance",
          "type": "uint256"
        }
      ],
      "payable": false,
      "stateMutability": "view",
      "type": "function"
    },
    {
      "constant": true,
      "inputs": [],
      "name": "minInvestment",
      "outputs": [
        {
          "name": "",
          "type": "uint256"
        }
      ],
      "payable": false,
      "stateMutability": "view",
      "type": "function"
    },
    {
      "constant": true,
      "inputs": [],
      "name": "symbol",
      "outputs": [
        {
          "name": "",
          "type": "string"
        }
      ],
      "payable": false,
      "stateMutability": "view",
      "type": "function"
    },
    {
      "constant": true,
      "inputs": [],
      "name": "saleStart",
      "outputs": [
        {
          "name": "",
          "type": "uint256"
        }
      ],
      "payable": false,
      "stateMutability": "view",
      "type": "function"
    },
    {
      "constant": true,
      "inputs": [],
      "name": "coinTradeStart",
      "outputs": [
        {
          "name": "",
          "type": "uint256"
        }
      ],
      "payable": false,
      "stateMutability": "view",
      "type": "function"
    },
    {
      "constant": true,
      "inputs": [],
      "name": "saleEnd",
      "outputs": [
        {
          "name": "",
          "type": "uint256"
        }
      ],
      "payable": false,
      "stateMutability": "view",
      "type": "function"
    },
    {
      "constant": true,
      "inputs": [],
      "name": "raisedAmount",
      "outputs": [
        {
          "name": "",
          "type": "uint256"
        }
      ],
      "payable": false,
      "stateMutability": "view",
      "type": "function"
    },
    {
      "constant": true,
      "inputs": [],
      "name": "deposit",
      "outputs": [
        {
          "name": "",
          "type": "address"
        }
      ],
      "payable": false,
      "stateMutability": "view",
      "type": "function"
    },
    {
      "constant": true,
      "inputs": [
        {
          "name": "tokenOwner",
          "type": "address"
        },
        {
          "name": "spender",
          "type": "address"
        }
      ],
      "name": "allowance",
      "outputs": [
        {
          "name": "",
          "type": "uint256"
        }
      ],
      "payable": false,
      "stateMutability": "view",
      "type": "function"
    },
    {
      "constant": true,
      "inputs": [],
      "name": "admin",
      "outputs": [
        {
          "name": "",
          "type": "address"
        }
      ],
      "payable": false,
      "stateMutability": "view",
      "type": "function"
    },
    {
      "constant": true,
      "inputs": [],
      "name": "hardCap",
      "outputs": [
        {
          "name": "",
          "type": "uint256"
        }
      ],
      "payable": false,
      "stateMutability": "view",
      "type": "function"
    },
    {
      "inputs": [
        {
          "name": "_deposit",
          "type": "address"
        }
      ],
      "payable": false,
      "stateMutability": "nonpayable",
      "type": "constructor"
    },
    {
      "payable": true,
      "stateMutability": "payable",
      "type": "fallback"
    },
    {
      "anonymous": false,
      "inputs": [
        {
          "indexed": false,
          "name": "investor",
          "type": "address"
        },
        {
          "indexed": false,
          "name": "value",
          "type": "uint256"
        },
        {
          "indexed": false,
          "name": "tokens",
          "type": "uint256"
        }
      ],
      "name": "Invest",
      "type": "event"
    },
    {
      "anonymous": false,
      "inputs": [
        {
          "indexed": true,
          "name": "from",
          "type": "address"
        },
        {
          "indexed": true,
          "name": "to",
          "type": "address"
        },
        {
          "indexed": false,
          "name": "tokens",
          "type": "uint256"
        }
      ],
      "name": "Transfer",
      "type": "event"
    },
    {
      "anonymous": false,
      "inputs": [
        {
          "indexed": true,
          "name": "tokenOwner",
          "type": "address"
        },
        {
          "indexed": true,
          "name": "spender",
          "type": "address"
        },
        {
          "indexed": false,
          "name": "tokens",
          "type": "uint256"
        }
      ],
      "name": "Approval",
      "type": "event"
    },
    {
      "constant": false,
      "inputs": [],
      "name": "halt",
      "outputs": [],
      "payable": false,
      "stateMutability": "nonpayable",
      "type": "function"
    },
    {
      "constant": false,
      "inputs": [],
      "name": "unhalt",
      "outputs": [],
      "payable": false,
      "stateMutability": "nonpayable",
      "type": "function"
    },
    {
      "constant": false,
      "inputs": [
        {
          "name": "newDeposit",
          "type": "address"
        }
      ],
      "name": "changeDepositAddress",
      "outputs": [],
      "payable": false,
      "stateMutability": "nonpayable",
      "type": "function"
    },
    {
      "constant": true,
      "inputs": [],
      "name": "getCurrentState",
      "outputs": [
        {
          "name": "",
          "type": "uint8"
        }
      ],
      "payable": false,
      "stateMutability": "view",
      "type": "function"
    },
    {
      "constant": false,
      "inputs": [],
      "name": "invest",
      "outputs": [
        {
          "name": "",
          "type": "bool"
        }
      ],
      "payable": true,
      "stateMutability": "payable",
      "type": "function"
    },
    {
      "constant": false,
      "inputs": [],
      "name": "burn",
      "outputs": [
        {
          "name": "",
          "type": "bool"
        }
      ],
      "payable": false,
      "stateMutability": "nonpayable",
      "type": "function"
    },
    {
      "constant": false,
      "inputs": [
        {
          "name": "to",
          "type": "address"
        },
        {
          "name": "value",
          "type": "uint256"
        }
      ],
      "name": "transfer",
      "outputs": [
        {
          "name": "",
          "type": "bool"
        }
      ],
      "payable": false,
      "stateMutability": "nonpayable",
      "type": "function"
    },
    {
      "constant": false,
      "inputs": [
        {
          "name": "_from",
          "type": "address"
        },
        {
          "name": "_to",
          "type": "address"
        },
        {
          "name": "_value",
          "type": "uint256"
        }
      ],
      "name": "transferFrom",
      "outputs": [
        {
          "name": "",
          "type": "bool"
        }
      ],
      "payable": false,
      "stateMutability": "nonpayable",
      "type": "function"
    }
  ],
  "bytecode": "0x60806040526040805190810160405280600b81526020017f416b6b696520546f6b656e00000000000000000000000000000000000000000081525060009080519060200190620000519291906200027e565b506040805190810160405280600381526020017f414b540000000000000000000000000000000000000000000000000000000000815250600190805190602001906200009f9291906200027e565b50600060025566038d7ea4c68000600955681043561a8829300000600a5542600c5562093a804201600d5562093a80600d5401600e55674563918244f40000600f55662386f26fc10000601055348015620000f957600080fd5b506040516020806200195f83398101806040528101908080519060200190929190505050620493e060038190555033600460006101000a81548173ffffffffffffffffffffffffffffffffffffffff021916908373ffffffffffffffffffffffffffffffffffffffff16021790555060035460056000600460009054906101000a900473ffffffffffffffffffffffffffffffffffffffff1673ffffffffffffffffffffffffffffffffffffffff1673ffffffffffffffffffffffffffffffffffffffff1681526020019081526020016000208190555080600860006101000a81548173ffffffffffffffffffffffffffffffffffffffff021916908373ffffffffffffffffffffffffffffffffffffffff16021790555033600760006101000a81548173ffffffffffffffffffffffffffffffffffffffff021916908373ffffffffffffffffffffffffffffffffffffffff1602179055506000601160006101000a81548160ff021916908360038111156200027257fe5b0217905550506200032d565b828054600181600116156101000203166002900490600052602060002090601f016020900481019282601f10620002c157805160ff1916838001178555620002f2565b82800160010185558215620002f2579182015b82811115620002f1578251825591602001919060010190620002d4565b5b50905062000301919062000305565b5090565b6200032a91905b80821115620003265760008160009055506001016200030c565b5090565b90565b611622806200033d6000396000f300608060405260043610610169576000357c0100000000000000000000000000000000000000000000000000000000900463ffffffff1680622e131614610174578063047fc9aa1461019f57806306fdde03146101ca578063095ea7b31461025a57806318160ddd146102bf57806323b872dd146102ea57806327e235e31461036f578063313ce567146103c6578063378aa701146103f157806344df8e701461042a57806344f38756146104595780634d853ee5146104925780635ed7ca5b146104e95780636d58c88f1461050057806370a08231146105435780638ac2c6801461059a57806395d89b41146105c5578063a9059cbb14610655578063ab0bcc41146106ba578063bf604019146106e5578063c10b935814610710578063c59ee1dc1461073b578063cb3e64fd14610766578063d0e30db01461077d578063dd62ed3e146107d4578063e8b5e51f1461084b578063f851a4401461086d578063fb86a404146108c4575b6101716108ef565b50005b34801561018057600080fd5b50610189610b44565b6040518082815260200191505060405180910390f35b3480156101ab57600080fd5b506101b4610b4a565b6040518082815260200191505060405180910390f35b3480156101d657600080fd5b506101df610b50565b6040518080602001828103825283818151815260200191508051906020019080838360005b8381101561021f578082015181840152602081019050610204565b50505050905090810190601f16801561024c5780820380516001836020036101000a031916815260200191505b509250505060405180910390f35b34801561026657600080fd5b506102a5600480360381019080803573ffffffffffffffffffffffffffffffffffffffff16906020019092919080359060200190929190505050610bee565b604051808215151515815260200191505060405180910390f35b3480156102cb57600080fd5b506102d4610d3d565b6040518082815260200191505060405180910390f35b3480156102f657600080fd5b50610355600480360381019080803573ffffffffffffffffffffffffffffffffffffffff169060200190929190803573ffffffffffffffffffffffffffffffffffffffff16906020019092919080359060200190929190505050610d47565b604051808215151515815260200191505060405180910390f35b34801561037b57600080fd5b506103b0600480360381019080803573ffffffffffffffffffffffffffffffffffffffff169060200190929190505050610d5c565b6040518082815260200191505060405180910390f35b3480156103d257600080fd5b506103db610d74565b6040518082815260200191505060405180910390f35b3480156103fd57600080fd5b50610406610d7a565b6040518082600381111561041657fe5b60ff16815260200191505060405180910390f35b34801561043657600080fd5b5061043f610def565b604051808215151515815260200191505060405180910390f35b34801561046557600080fd5b5061046e610eb9565b6040518082600381111561047e57fe5b60ff16815260200191505060405180910390f35b34801561049e57600080fd5b506104a7610ecc565b604051808273ffffffffffffffffffffffffffffffffffffffff1673ffffffffffffffffffffffffffffffffffffffff16815260200191505060405180910390f35b3480156104f557600080fd5b506104fe610ef2565b005b34801561050c57600080fd5b50610541600480360381019080803573ffffffffffffffffffffffffffffffffffffffff169060200190929190505050610f74565b005b34801561054f57600080fd5b50610584600480360381019080803573ffffffffffffffffffffffffffffffffffffffff169060200190929190505050611014565b6040518082815260200191505060405180910390f35b3480156105a657600080fd5b506105af61105d565b6040518082815260200191505060405180910390f35b3480156105d157600080fd5b506105da611063565b6040518080602001828103825283818151815260200191508051906020019080838360005b8381101561061a5780820151818401526020810190506105ff565b50505050905090810190601f1680156106475780820380516001836020036101000a031916815260200191505b509250505060405180910390f35b34801561066157600080fd5b506106a0600480360381019080803573ffffffffffffffffffffffffffffffffffffffff16906020019092919080359060200190929190505050611101565b604051808215151515815260200191505060405180910390f35b3480156106c657600080fd5b506106cf611114565b6040518082815260200191505060405180910390f35b3480156106f157600080fd5b506106fa61111a565b6040518082815260200191505060405180910390f35b34801561071c57600080fd5b50610725611120565b6040518082815260200191505060405180910390f35b34801561074757600080fd5b50610750611126565b6040518082815260200191505060405180910390f35b34801561077257600080fd5b5061077b61112c565b005b34801561078957600080fd5b506107926111ae565b604051808273ffffffffffffffffffffffffffffffffffffffff1673ffffffffffffffffffffffffffffffffffffffff16815260200191505060405180910390f35b3480156107e057600080fd5b50610835600480360381019080803573ffffffffffffffffffffffffffffffffffffffff169060200190929190803573ffffffffffffffffffffffffffffffffffffffff1690602001909291905050506111d4565b6040518082815260200191505060405180910390f35b6108536108ef565b604051808215151515815260200191505060405180910390f35b34801561087957600080fd5b5061088261125b565b604051808273ffffffffffffffffffffffffffffffffffffffff1673ffffffffffffffffffffffffffffffffffffffff16815260200191505060405180910390f35b3480156108d057600080fd5b506108d9611281565b6040518082815260200191505060405180910390f35b6000806108fa610d7a565b601160006101000a81548160ff0219169083600381111561091757fe5b02179055506001600381111561092957fe5b601160009054906101000a900460ff16600381111561094457fe5b14151561095057600080fd5b60105434101580156109645750600f543411155b151561096f57600080fd5b6009543481151561097c57fe5b049050600a5434600b54011115151561099457600080fd5b34600b6000828254019250508190555080600560003373ffffffffffffffffffffffffffffffffffffffff1673ffffffffffffffffffffffffffffffffffffffff168152602001908152602001600020600082825401925050819055508060056000600460009054906101000a900473ffffffffffffffffffffffffffffffffffffffff1673ffffffffffffffffffffffffffffffffffffffff1673ffffffffffffffffffffffffffffffffffffffff16815260200190815260200160002060008282540392505081905550600860009054906101000a900473ffffffffffffffffffffffffffffffffffffffff1673ffffffffffffffffffffffffffffffffffffffff166108fc349081150290604051600060405180830381858888f19350505050158015610ac8573d6000803e3d6000fd5b507f4ae4bd7655e0d350876a23cd90c4227b13db560e34435c6a488150a9c844bf5f333483604051808473ffffffffffffffffffffffffffffffffffffffff1673ffffffffffffffffffffffffffffffffffffffff168152602001838152602001828152602001935050505060405180910390a1600191505090565b600f5481565b60035481565b60008054600181600116156101000203166002900480601f016020809104026020016040519081016040528092919081815260200182805460018160011615610100020316600290048015610be65780601f10610bbb57610100808354040283529160200191610be6565b820191906000526020600020905b815481529060010190602001808311610bc957829003601f168201915b505050505081565b600081600560003373ffffffffffffffffffffffffffffffffffffffff1673ffffffffffffffffffffffffffffffffffffffff1681526020019081526020016000205410151515610c3e57600080fd5b600082111515610c4d57600080fd5b81600660003373ffffffffffffffffffffffffffffffffffffffff1673ffffffffffffffffffffffffffffffffffffffff16815260200190815260200160002060008573ffffffffffffffffffffffffffffffffffffffff1673ffffffffffffffffffffffffffffffffffffffff168152602001908152602001600020819055508273ffffffffffffffffffffffffffffffffffffffff163373ffffffffffffffffffffffffffffffffffffffff167f8c5be1e5ebec7d5bd14f71427d1e84f3dd0314c0f7b2291e5b200ac8c7c3b925846040518082815260200191505060405180910390a36001905092915050565b6000600354905090565b6000610d54848484611287565b509392505050565b60056020528060005260406000206000915090505481565b60025481565b6000600380811115610d8857fe5b601160009054906101000a900460ff166003811115610da357fe5b1415610db25760039050610dec565b600c54421015610dc55760009050610dec565b600c544210158015610dd95750600d544211155b15610de75760019050610dec565b600290505b90565b6000610df9610d7a565b601160006101000a81548160ff02191690836003811115610e1657fe5b021790555060026003811115610e2857fe5b601160009054906101000a900460ff166003811115610e4357fe5b141515610e4f57600080fd5b600060056000600460009054906101000a900473ffffffffffffffffffffffffffffffffffffffff1673ffffffffffffffffffffffffffffffffffffffff1673ffffffffffffffffffffffffffffffffffffffff1681526020019081526020016000208190555090565b601160009054906101000a900460ff1681565b600460009054906101000a900473ffffffffffffffffffffffffffffffffffffffff1681565b600760009054906101000a900473ffffffffffffffffffffffffffffffffffffffff1673ffffffffffffffffffffffffffffffffffffffff163373ffffffffffffffffffffffffffffffffffffffff16141515610f4e57600080fd5b6003601160006101000a81548160ff02191690836003811115610f6d57fe5b0217905550565b600760009054906101000a900473ffffffffffffffffffffffffffffffffffffffff1673ffffffffffffffffffffffffffffffffffffffff163373ffffffffffffffffffffffffffffffffffffffff16141515610fd057600080fd5b80600860006101000a81548173ffffffffffffffffffffffffffffffffffffffff021916908373ffffffffffffffffffffffffffffffffffffffff16021790555050565b6000600560008373ffffffffffffffffffffffffffffffffffffffff1673ffffffffffffffffffffffffffffffffffffffff168152602001908152602001600020549050919050565b60105481565b60018054600181600116156101000203166002900480601f0160208091040260200160405190810160405280929190818152602001828054600181600116156101000203166002900480156110f95780601f106110ce576101008083540402835291602001916110f9565b820191906000526020600020905b8154815290600101906020018083116110dc57829003601f168201915b505050505081565b600061110d8383611491565b5092915050565b600c5481565b600e5481565b600d5481565b600b5481565b600760009054906101000a900473ffffffffffffffffffffffffffffffffffffffff1673ffffffffffffffffffffffffffffffffffffffff163373ffffffffffffffffffffffffffffffffffffffff1614151561118857600080fd5b6001601160006101000a81548160ff021916908360038111156111a757fe5b0217905550565b600860009054906101000a900473ffffffffffffffffffffffffffffffffffffffff1681565b6000600660008473ffffffffffffffffffffffffffffffffffffffff1673ffffffffffffffffffffffffffffffffffffffff16815260200190815260200160002060008373ffffffffffffffffffffffffffffffffffffffff1673ffffffffffffffffffffffffffffffffffffffff16815260200190815260200160002054905092915050565b600760009054906101000a900473ffffffffffffffffffffffffffffffffffffffff1681565b600a5481565b600081600660008673ffffffffffffffffffffffffffffffffffffffff1673ffffffffffffffffffffffffffffffffffffffff16815260200190815260200160002060008573ffffffffffffffffffffffffffffffffffffffff1673ffffffffffffffffffffffffffffffffffffffff168152602001908152602001600020541015151561131457600080fd5b81600560008673ffffffffffffffffffffffffffffffffffffffff1673ffffffffffffffffffffffffffffffffffffffff168152602001908152602001600020541015151561136257600080fd5b81600560008673ffffffffffffffffffffffffffffffffffffffff1673ffffffffffffffffffffffffffffffffffffffff1681526020019081526020016000206000828254039250508190555081600560008573ffffffffffffffffffffffffffffffffffffffff1673ffffffffffffffffffffffffffffffffffffffff1681526020019081526020016000206000828254019250508190555081600660008673ffffffffffffffffffffffffffffffffffffffff1673ffffffffffffffffffffffffffffffffffffffff16815260200190815260200160002060008573ffffffffffffffffffffffffffffffffffffffff1673ffffffffffffffffffffffffffffffffffffffff16815260200190815260200160002060008282540392505081905550600190509392505050565b600081600560003373ffffffffffffffffffffffffffffffffffffffff1673ffffffffffffffffffffffffffffffffffffffff16815260200190815260200160002054101580156114e25750600082115b15156114ed57600080fd5b81600560008573ffffffffffffffffffffffffffffffffffffffff1673ffffffffffffffffffffffffffffffffffffffff1681526020019081526020016000206000828254019250508190555081600560003373ffffffffffffffffffffffffffffffffffffffff1673ffffffffffffffffffffffffffffffffffffffff168152602001908152602001600020600082825403925050819055508273ffffffffffffffffffffffffffffffffffffffff163373ffffffffffffffffffffffffffffffffffffffff167fddf252ad1be2c89b69c2b068fc378daa952ba7f163c4a11628f55a4df523b3ef846040518082815260200191505060405180910390a360019050929150505600a165627a7a72305820631f270c09dc6fa2c45b9333e1d6ee8638828d9d1910e5a15d54e95f6e09faeb0029",
  "source": "pragma solidity ^0.4.24;\n\nimport \"./CryptosToken.sol\";\n\ncontract CryptosICO is CryptosToken{\n    address public admin;\n    address public deposit;\n    \n    //token price in wei: 1CRPT = 0.001 ETHER, 1 ETHER = 1000 CRPT\n    uint tokenPrice = 1000000000000000;\n    \n    //300 Ether in wei\n    uint public hardCap = 300000000000000000000;\n    \n    uint public raisedAmount;\n    \n    uint public saleStart = now;\n    uint public saleEnd = now + 604800; //one week\n    uint public coinTradeStart = saleEnd + 604800; //transferable in a week after salesEnd\n    \n    uint public maxInvestment = 5000000000000000000;\n    uint public minInvestment = 10000000000000000;\n    \n    enum State { beforeStart, running, afterEnd, halted}\n    State public icoState;\n    \n    \n    modifier onlyAdmin(){\n        require(msg.sender == admin);\n        _;\n    }\n    \n    event Invest(address investor, uint value, uint tokens);\n    \n    constructor(address _deposit) public{\n        deposit = _deposit;\n        admin = msg.sender;\n        icoState = State.beforeStart;\n    }\n    \n    //emergency stop\n    function halt() public onlyAdmin{\n        icoState = State.halted;\n    }\n    \n    //restart \n    function unhalt() public onlyAdmin{\n        icoState = State.running;\n    }\n    \n    \n    //only the admin can change the deposit address\n    function changeDepositAddress(address newDeposit) public onlyAdmin{\n        deposit = newDeposit;\n    }\n    \n    \n    //returns ico state\n    function getCurrentState() public view returns(State){\n        if(icoState == State.halted){\n            return State.halted;\n        }else if(block.timestamp < saleStart){\n            return State.beforeStart;\n        }else if(block.timestamp >= saleStart && block.timestamp <= saleEnd){\n            return State.running;\n        }else{\n            return State.afterEnd;\n        }\n    }\n    \n    \n    function invest() payable public returns(bool){\n        //invest only in running\n        icoState = getCurrentState();\n        require(icoState == State.running);\n        \n        require(msg.value >= minInvestment && msg.value <= maxInvestment);\n        \n        uint tokens = msg.value / tokenPrice;\n        \n        //hardCap not reached\n        require(raisedAmount + msg.value <= hardCap);\n        \n        raisedAmount += msg.value;\n        \n        //add tokens to investor balance from founder balance\n        balances[msg.sender] += tokens;\n        balances[founder] -= tokens;\n        \n        deposit.transfer(msg.value);//transfer eth to the deposit address\n        \n        //emit event\n        emit Invest(msg.sender, msg.value, tokens);\n        \n        return true;\n        \n\n    }\n    \n    function burn() public returns(bool){\n        icoState = getCurrentState();\n        require(icoState == State.afterEnd);\n        balances[founder] = 0;\n        \n    }\n    \n    function () payable public{\n        invest();\n    }\n    \n    function transfer(address to, uint value) public returns(bool){\n       // require(block.timestamp > coinTradeStart);\n        super.transfer(to, value);\n    }\n    \n    function transferFrom(address _from, address _to, uint _value) public returns(bool){\n       // require(block.timestamp > coinTradeStart);\n        super.transferFrom(_from, _to, _value);\n    }\n    \n}\n\n\n\n\n\n\n",
  "sourcePath": "/Users/akitasatoshi/ico_practice/contracts/CryptosICO.sol",
  "compiler": {
    "name": "solc",
    "version": "0.4.25+commit.59dbf8f1.Emscripten.clang"
  },
  "schemaVersion": "2.0.2",
  "updatedAt": "2019-04-13T04:57:54.499Z"
}